:1000000085C00000A3C00000A1C000009FC0000088
:100010009DC000009BC0000099C0000097C0000078
:1000200095C0000093C0000091C000008FC0000088
:100030008DC000008BC0000089C0000087C0000098
:1000400085C0000083C0000081C000007FC00000A8
:100050007DC000007BC0000079C0000077C00000B8
:1000600075C0000073C0000071C000006FC00000C8
:100070006DC000006BC0000069C0000067C00000D8
:1000800065C0000063C0000061C000005FC00000E8
:100090005DC000005BC0000059C0000057C00000F8
:1000A00055C0000053C0000051C000004FC0000008
:1000B0004DC000004BC0000049C0000098C00000C7
:1000C00045C0000043C0000041C000004AC300001A
:1000D0003DC000003BC0000039C0000037C0000038
:1000E00035C00000072C7AA5BA6CC590DA3B936541
:1000F000FC8BBC53F810FD3C5692834DBD879D3A56
:10010000B63DCBC9BF5BBE73DA0FC93F11241FBE1A
:10011000CFEFD1E2DEBFCDBF00E00CBF12E0A0E028
:10012000B2E0E2EAF3E100E00BBF02C007900D92FB
:10013000A430B107D9F722E0A4E0B2E001C01D92DB
:10014000A73EB207E1F749D20C94CF0959CFEAE7AD
:10015000F0E087E0808380E480937C0010927B0055
:100160008081806880830895883048F490917B0076
:10017000977F90937B0090917C00907E0DC098EFCC
:10018000980F983060F490917B00986090937B007A
:1001900090917C00907E8770892B80937C00809169
:1001A0007A00806480937A0080917A0086FDFCCF8B
:1001B0008091780090917900089510922001E1E2F9
:1001C000F1E088E0808310922501109224018FE7EE
:1001D0009EE39093290180932801A3E7B0E08C91DE
:1001E00082608C93808181608083789408951F92CF
:1001F0000F920FB60F9211248F939F93AF93BF93DB
:100200008091040290910502A0910602B09107022C
:100210000196A11DB11D8093040290930502A09345
:100220000602B0930702BF91AF919F918F910F90FB
:100230000FBE0F901F90189588E18093C10086E053
:100240008093C20087E690E09093C5008093C4003D
:10025000089588E18093D10086E08093D20087E6FC
:1002600090E09093D5008093D4000895FC01919183
:10027000992339F08091C00085FFFCCF9093C60090
:10028000F6CF08959091D00095FFFCCF8093D600D3
:1002900008954F925F926F927F928F929F92AF924A
:1002A000BF92CF92DF92EF92FF920F931F93CF9363
:1002B000DF938C01EB01889FB001899F700D700D59
:1002C0001124CC9FC001CD9F900D900D1124680F7B
:1002D000791F072E000C880B990B9DD3EFD44B018F
:1002E0005C01780117FF04C0EE24FF24E01AF10A34
:1002F000B7010F2C000C880B990B8DD3A50194012D
:10030000EFD27BD220E030E044E353E450D42BED35
:100310003FE049E450E4E4D22B013C019B01AC01F5
:100320000BD5882319F0412C512C32015E01D7FFE7
:1003300004C0AA24BB24AC1ABD0A20E030E044EB80
:1003400052E4C301B201CCD29B01AC0165D220E0E2
:1003500030E040E85FE35FD22B013C01B5016E194C
:100360007F0977FF03C0719561957109072E000C15
:10037000880B990B50D39B01AC01C301B20117D478
:1003800020E030E048EC52E412D474D420E030E0B5
:1003900048EC52E4A5D24B016C01B701EA14FB040E
:1003A0000CF4B501072E000C880B990B34D35B01BC
:1003B0007C0117FD03C0D7FF1EC00CC0D7FF25C0AE
:1003C000382D292D9C2D8D2D45016701A32EB22E90
:1003D000E92EF82E9401A60160E070E0CB011BD25B
:1003E0004B016C019501A70160E070E0CB0113D2D5
:1003F0005B017C010AC0382D292D9C2D8D2D4501D6
:100400006701A32EB22EE92EF82E20E030E040E066
:1004100054E4B401C60100D220E030E44CE956E4D3
:10042000C6D320E030E040E85AE3C1D320E030E416
:100430004CE156E4F0D1BCD2EB0120E030E040E0EA
:1004400054E4B501C701E8D120E030E44CE956E4BA
:10045000AED320E030E040E85AE3A9D320E030E416
:100460004CE156E4D8D1A4D2653671054CF08091A8
:100470000B01806880930B0180910B018F7B0CC076
:100480006C398FEF78075CF480910B018064809366
:100490000B0180910B018F7780930B0102C060E00C
:1004A00070E0C536D1054CF080910B0180618093DE
:1004B0000B0180910B018F7D0CC0CC398FEFD807D9
:1004C0005CF480910B01806280930B0180910B01A1
:1004D0008F7E80930B0102C0C0E0D0E077FF03C0A5
:1004E0007195619571097093890060938800D7FFB9
:1004F00003C0D195C195D109D0938B00C0938A00D8
:10050000DF91CF911F910F91FF90EF90DF90CF90EF
:10051000BF90AF909F908F907F906F905F904F9023
:10052000089580E021DE883F934010F08DEF06C0F3
:1005300080E01ADE96958795969587958093E202DE
:1005400081E012DE883F934010F08DEF06C081E01D
:100550000BDE96958795969587958093E1028EE0C0
:1005600003DE883F934010F08DEF06C08EE0FCDD87
:1005700096958795969587958093E0028FE0F4DDB8
:10058000883F934010F08DEF06C08FE0EDDD96952B
:100590008795969587958093DF028091DB029091F5
:1005A000DC02A091DD02B091DE028093D70290932D
:1005B000D802A093D902B093DA028FEF63DE809164
:1005C000E20260DE8091E1025DDE8091E0025ADEAF
:1005D0008091DF0257DE8EEF55CEB9DD2DDE39DE9C
:1005E00080910A01806F80930A0184B1806684B98A
:1005F0001092800010928100809180008260809330
:1006000080008091810080618093810080918000D2
:10061000806A809380008091810082608093810055
:1006200080E197E290938700809386001092890082
:100630001092880010928B0010928A008091D10055
:1006400080688093D100B9DD789480910B01806837
:1006500080930B0180910B018F7B80930B01809124
:100660000B01806180930B0180910B018F7D809342
:100670000B012FEF81EE94E0215080409040E1F794
:1006800000C0000044EFA42EBB24B39450E0C52E5C
:1006900052E0D52E6DE0E62E62E0F62E8091040247
:1006A00090910502A0910602B09107028093DB02AF
:1006B0009093DC02A093DD02B093DE024091D7025A
:1006C0005091D8026091D9027091DA02841B950B87
:1006D000A60BB70B84369105A105B10508F021DF03
:1006E0008091D502882369F081E03EDDEC0182E053
:1006F0003BDDC81BD90B80E037DD8501081B190BDA
:100700001AC08091D6028823B1F0C091E402D0E0F3
:10071000CE57D109CE01880F991FC80FD91F00915C
:10072000E30210E00E571109C801880F991F080F46
:10073000191F1092D602B801CE01ABDD8091E602FE
:100740001F928F93DF92CF92FF92EF924DD38DE065
:1007500092E08CDD0F900F900F900F900F900F9004
:100760009DCF1F920F920FB60F9211248F939F93DC
:100770008091D60090910C02933091F040F491302A
:1007800059F0923071F580930A0293E00CC09430D6
:1007900069F0953079F025C080930B0292E003C098
:1007A0008093090294E090930C021BC0809308028E
:1007B00095E0F9CF8E3F99F490910B029093E60269
:1007C00090910A029093E502909109029093E402BD
:1007D000909108029093E30291E09093D6021092D8
:1007E0000C028F3F19F481E080930C029F918F914E
:1007F0000F900FBE0F901F9018959F939F7746D133
:100800000F9000203AF49058A2EA2AED3FE049E424
:1008100050E413D092C15058BB27AA270ED08DC1E7
:100820007ED130F083D120F031F49F3F11F41EF4DB
:100830004EC10EF4E095E7FB44C1E92F8FD180F360
:10084000BA17620773078407950718F071F49EF5CD
:10085000A7C10EF4E0950B2EBA2FA02D0B01B90104
:1008600090010C01CA01A0011124FF27591B99F026
:10087000593F50F4503E68F11A16F040A22F232F32
:10088000342F4427585FF3CF469537952795A79582
:10089000F0405395C9F77EF41F16BA0B620B730B29
:1008A000840BBAF09150A1F0FF0FBB1F661F771F9A
:1008B000881FC2F70EC0BA0F621F731F841F48F44F
:1008C000879577956795B795F7959E3F08F0B3CFD5
:1008D0009395880F08F09927EE0F979587950895BF
:1008E0000CD02BC123D140F01AD130F021F45F3F5E
:1008F00019F0E7C0511155C1EAC030D198F39923DE
:10090000C9F35523B1F3951B550BBB27AA276217D3
:100910007307840738F09F5F5F4F220F331F441F18
:10092000AA1FA9F333D00E2E3AF0E0E830D0915050
:100930005040E695001CCAF729D0FE2F27D0660F3D
:10094000771F881FBB1F261737074807AB07B0E87C
:1009500009F0BB0B802DBF01FF2793585F4F2AF092
:100960009E3F510568F0ADC01CC15F3FECF3983E5F
:10097000DCF3869577956795B795F7959F5FC9F7EF
:10098000880F911D9695879597F90895E1E0660F78
:10099000771F881FBB1F621773078407BA0720F0F1
:1009A000621B730B840BBA0BEE1F88F7E09508955A
:1009B00004D06894B111F5C00895D8D088F09F573D
:1009C00090F0B92F9927B751A0F0D1F0660F771F9B
:1009D000881F991F1AF0BA95C9F712C0B13081F07B
:1009E000DFD0B1E00895DCC0672F782F8827B85F8B
:1009F00039F0B93FCCF3869577956795B395D9F7DC
:100A00003EF490958095709561957F4F8F4F9F4FE5
:100A10000895E89409C097FB3EF4909580957095F1
:100A200061957F4F8F4F9F4F9923A9F0F92F96E93A
:100A3000BB279395F695879577956795B795F111AF
:100A4000F8CFFAF4BB0F11F460FF1BC06F5F7F4F4C
:100A50008F4F9F4F16C0882311F096E911C077235E
:100A600021F09EE8872F762F05C0662371F096E867
:100A7000862F70E060E02AF09A95660F771F881F36
:100A8000DAF7880F9695879597F90895DF93CF93B6
:100A90001F930F938B01EC01E4EEF0E01BD04DD0DF
:100AA0009801AE018B01EC0160E070E080E89FE30B
:100AB000B2DE04D19801AE010F911F91CF91DF9169
:100AC00082C097F99F6780E870E060E008959FEF2B
:100AD00080EC0895DF93CF931F930F93FF92EF92D3
:100AE000DF927B018C01689405C0DA2EEF016BD098
:100AF000FE01E894A5912591359145915591AEF36C
:100B0000EF019BDEFE019701A801DA9479F7DF90EF
:100B1000EF90FF900F911F91CF91DF9108950024E6
:100B20000A941616170618060906089500240A9452
:100B300012161306140605060895092E0394000CD8
:100B400011F4882352F0BB0F40F4BF2B11F460FF67
:100B500004C06F5F7F4F8F4F9F4F089557FD905890
:100B6000440F551F59F05F3F71F04795880F97FB71
:100B7000991F61F09F3F79F087950895121613062B
:100B80001406551FF2CF4695F1DF08C0161617065A
:100B90001806991FF1CF869571056105089408958F
:100BA000E894BB2766277727CB0197F908950BD0E8
:100BB000C4CFB5DF28F0BADF18F0952309F081CF54
:100BC00086CF1124EECFCADFA0F3959FD1F3950F06
:100BD00050E0551F629FF001729FBB27F00DB11DC1
:100BE000639FAA27F00DB11DAA1F649F6627B00D51
:100BF000A11D661F829F2227B00DA11D621F739F3A
:100C0000B00DA11D621F839FA00D611D221F749F47
:100C10003327A00D611D231F849F600D211D822F8E
:100C2000762F6A2F11249F5750408AF0E1F08823D5
:100C30004AF0EE0FFF1FBB1F661F771F881F9150E2
:100C40005040A9F79E3F510570F03BCFAACF5F3FC0
:100C5000ECF3983EDCF3869577956795B795F79515
:100C6000E7959F5FC1F7FE2B880F911D969587959D
:100C700097F908957BDFE0F09E37D8F09639B8F405
:100C80009E3848F4672F782F8827985FF9CF86958C
:100C90007795679593959539D0F3B62FB1706B0F13
:100CA000711D811D20F487957795679593956CC08C
:100CB00086C077CF11F40EF40ACF81C057DFD0F38E
:100CC0009923D9F3CEF39F57550B87FF86D0002485
:100CD000A0E640EA900180585695979528F4805CEC
:100CE000660F771F881F20F026173707480730F454
:100CF000621B730B840B202931294A2BA69517946C
:100D00000794202531254A2758F7660F771F881F3B
:100D100020F026173707480730F4620B730B840B5B
:100D2000200D311D411DA09581F7B901842F9158E7
:100D3000880F96958795089503D0880B990B089591
:100D4000990F0008550FAA0BE0E8FEEF16161706DC
:100D5000E807F907C0F012161306E407F50798F044
:100D6000621B730B840B950B39F40A2661F0232B5D
:100D7000242B252B21F408950A2609F4A140A695D9
:100D80008FEF811D811D0895882371F4772321F051
:100D90009850872B762F07C0662311F499270DC032
:100DA0009051862B70E060E02AF09A95660F771FCD
:100DB000881FDAF7880F9695879597F908959F3FD2
:100DC00031F0915020F4879577956795B795880F06
:100DD000911D9695879597F9089591505040660F0B
:100DE000771F881FD2F708950F931F93CF93DF9338
:100DF000CDB7DEB72E970FB6F894DEBF0FBECDBFCE
:100E00000E891F8986E08C831A8309838FEF9FE701
:100E10009E838D83AE01465E5F4F688D798DCE01D6
:100E2000019610D0EF81F885E00FF11F10822E9609
:100E30000FB6F894DEBF0FBECDBFDF91CF911F91EB
:100E40000F9108952F923F924F925F926F927F92EF
:100E50008F929F92AF92BF92CF92DF92EF92FF92CA
:100E60000F931F93CF93DF93CDB7DEB72B970FB6BA
:100E7000F894DEBF0FBECDBF6C017B018A01FC017F
:100E800017821682838181FFBFC1CE0101963C018A
:100E9000F6019381F70193FD859193FF81917F0185
:100EA000882309F4ADC1853239F493FD859193FF10
:100EB00081917F01853221F4B60190E0D6D1E8CF4F
:100EC000912C212C312CFFE1F315D8F08B3279F0E5
:100ED00038F4803279F08332A1F4232D20611DC0D3
:100EE0008D3261F0803369F4232D216016C0832D8B
:100EF0008260382EE32DE4603E2E2AC0F32DF86088
:100F00001DC037FC2DC020ED280F2A3040F08E3256
:100F1000B9F436FC75C1232D2064322E19C036FE7B
:100F200006C08AE0989E200D1124922E11C0EAE09E
:100F30002E9E200D1124222EF32DF0623F2E08C08C
:100F40008C3621F4832D8068382E02C0883641F417
:100F5000F70193FD859193FF81917F018111B3CFBB
:100F6000982F9F7D9554933028F40C5F1F4F9FE37B
:100F700099830DC0833631F0833771F0833509F0E2
:100F800055C020C0F801808189830E5F1F4F8824DF
:100F90008394912C530112C02801F2E04F0E511C92
:100FA000F801A080B18036FE03C0692D70E002C058
:100FB0006FEF7FEFC5014ED14C018201F32DFF771A
:100FC0003F2E15C0280122E0420E511CF801A080DE
:100FD000B18036FE03C0692D70E002C06FEF7FEF75
:100FE000C5012DD14C01F32DF0683F2E820133FC59
:100FF00019C0822D90E088169906A0F4B60180E20F
:1010000090E033D12A94F5CFF50137FC859137FE76
:1010100081915F01B60190E028D121102A9421E04E
:10102000821A91088114910479F7E1C0843611F095
:10103000893639F5F80137FE07C0608171818281F8
:1010400093810C5F1F4F08C060817181072E000CD7
:10105000880B990B0E5F1F4FF32DFF763F2E97FFE6
:1010600009C090958095709561957F4F8F4F9F4FE8
:10107000F0683F2E2AE030E0A30133D1882E861895
:1010800044C0853731F4232D2F7EB22E2AE030E084
:1010900025C0932D997FB92E8F36C1F018F488356D
:1010A00079F0AEC0803719F0883721F0A9C0E92F58
:1010B000E061BE2EB4FE0DC0FB2DF460BF2E09C052
:1010C00034FE0AC0292F2660B22E06C028E030E088
:1010D00005C020E130E002C020E132E0F801B7FEB7
:1010E00007C060817181828193810C5F1F4F06C0B0
:1010F0006081718180E090E00E5F1F4FA301F1D00D
:10110000882E8618FB2DFF773F2E36FE0DC0232D2F
:101110002E7FA22E891458F434FE0BC032FC09C075
:10112000832D8E7EA82E05C0B82CA32C03C0B82C0E
:1011300001C0B92CA4FE0FC0FE01E80DF11D808195
:10114000803321F49A2D997EA92E09C0A2FE06C0F3
:10115000B394B39404C08A2D867809F0B394A3FCA9
:1011600010C0A0FE06C0B21480F4280C922C9B186C
:101170000DC0B21458F4B60180E290E076D0B3947A
:10118000F8CFB21418F42B1802C0982C212CA4FE0E
:101190000FC0B60180E390E068D0A2FE16C0A1FCAB
:1011A00003C088E790E002C088E590E0B6010CC07B
:1011B0008A2D867851F0A1FE02C08BE201C080E248
:1011C000A7FC8DE2B60190E050D0891430F4B6014E
:1011D00080E390E04AD09A94F8CF8A94F301E80D26
:1011E000F11D8081B60190E040D08110F6CF222021
:1011F00009F44ECEB60180E290E037D02A94F7CFC2
:10120000F6018681978102C08FEF9FEF2B960FB674
:10121000F894DEBF0FBECDBFDF91CF911F910F912C
:10122000FF90EF90DF90CF90BF90AF909F908F9006
:101230007F906F905F904F903F902F900895FC01AA
:101240000590615070400110D8F7809590958E0FF1
:101250009F1F0895FC016150704001900110D8F764
:10126000809590958E0F9F1F08950F931F93CF9396
:10127000DF93FB01238121FD03C08FEF9FEF2CC083
:1012800022FF16C0468157812481358142175307BA
:1012900044F4A081B1819D012F5F3F4F31832083B2
:1012A0008C93268137812F5F3F4F3783268314C06D
:1012B0008B01EC01FB010084F185E02D1995892B50
:1012C000E1F6D80116968D919C9117970196179685
:1012D0009C938E931697CE01DF91CF911F910F9122
:1012E0000895FA01AA27283051F1203181F1E894BC
:1012F0006F936E7F6E5F7F4F8F4F9F4FAF4FB1E009
:101300003ED0B4E03CD0670F781F891F9A1FA11D03
:10131000680F791F8A1F911DA11D6A0F711D811D04
:10132000911DA11D20D009F468943F912AE0269FC9
:1013300011243019305D3193DEF6CF010895462F28
:101340004770405D4193B3E00FD0C9F7F6CF462F09
:101350004F70405D4A3318F0495D31FD4052419372
:1013600002D0A9F7EACFB4E0A6959795879577952F
:101370006795BA95C9F700976105710508959B01B6
:10138000AC010A2E06945795479537952795BA953F
:10139000C9F7620F731F841F951FA01D0895F8944D
:0213A000FFCF7D
:0413A200253464008A
:00000001FF
