:1000000071C000008EC000008CC000008AC00000DB
:1000100088C0000086C0000084C0000082C00000CC
:1000200080C000007EC000007CC000007AC00000DC
:1000300078C0000076C0000074C0000072C00000EC
:1000400070C000006EC000006CC000006AC00000FC
:1000500068C0000066C0000064C0000062C000000C
:1000600060C000005EC000005CC000005AC000001C
:1000700058C0000056C0000054C0000052C000002C
:1000800050C000004EC000004CC000004AC000003C
:1000900048C0000046C0000044C0000042C000004C
:1000A00040C000003EC000003CC000003AC000005C
:1000B00038C0000036C0000034C0000083C000001B
:1000C00030C000002EC000002CC0000023C3000080
:1000D00028C0000026C0000024C0000022C000008C
:1000E00020C0000011241FBECFEFD1E2DEBFCDBF84
:1000F00000E00CBF12E0A0E0B2E0E6E8F0E100E0D2
:100100000BBF02C007900D92A631B107D9F722E0CC
:10011000A6E1B2E001C01D92AC3FB207E1F7A9D160
:10012000B0C76ECFEAE7F0E087E0808380E4809399
:100130007C0010927B0080818068808308958830E5
:1001400048F490917B00977F90937B0090917C0086
:10015000907E0DC098EF980F983060F490917B00DE
:10016000986090937B0090917C00907E8770892BA3
:1001700080937C0080917A00806480937A008091E3
:100180007A0086FDFCCF80917800909179000895E7
:1001900010922001E1E2F1E088E0808310922501D5
:1001A000109224018FE79EE3909329018093280108
:1001B000A3E7B0E08C9182608C9380818160808322
:1001C000789408951F920F920FB60F9211248F9377
:1001D0009F93AF93BF938091160290911702A091C5
:1001E0001802B09119020196A11DB11D809316024B
:1001F00090931702A0931802B0931902BF91AF9188
:100200009F918F910F900FBE0F901F90189588E1CE
:100210008093C10086E08093C20087E690E09093CF
:10022000C5008093C400089588E18093D10086E0E2
:100230008093D20087E690E09093D5008093D4001D
:100240000895FC019191992339F08091C00085FFB8
:10025000FCCF9093C600F6CF08959091D00095FF03
:10026000FCCF8093D6000895CF92DF92EF92FF9259
:100270000F931F93CF93DF936C017B018A01680F6B
:10028000791F072E000C880B990B31D320E030E04A
:1002900040E054E495D220E03CE34CE956E4B3D38B
:1002A00020E030E040E85AE3AED320E03CE34CE10C
:1002B00056E485D2E9D2EB01B7016C197D09072E0E
:1002C000000C880B990B13D320E030E040E054E49D
:1002D00077D220E03CE34CE956E495D320E030E0CF
:1002E00040E85AE390D320E03CE34CE156E467D287
:1002F000CBD2653671054CF080910B0180688093FC
:100300000B0180910B018F7B0CC06C392FEF7207B2
:100310005CF480910B01806480930B0180910B0150
:100320008F7780930B0102C060E070E0C536D10585
:100330004CF080910B01806180930B0180910B0147
:100340008F7D0CC0CC398FEFD8075CF480910B0106
:10035000806280930B0180910B018F7E80930B0153
:1003600002C0C0E0D0E077FF03C0719561957109CC
:100370007093890060938800D7FF03C0D195C19521
:10038000D109D0938B00C0938A000C32114049F4FC
:100390002FEF85EA9EE0215080409040E1F700C0B9
:1003A0000000DF91CF911F910F91FF90EF90DF90B0
:1003B000CF90089580E0C3DE883F934010F08DEF2A
:1003C00006C080E0BCDE96958795969587958093CC
:1003D000F60281E0B4DE883F934010F08DEF06C056
:1003E00081E0ADDE96958795969587958093F50289
:1003F00082E0A5DE883F934010F08DEF06C082E0DA
:100400009EDE96958795969587958093F4028FE06A
:1004100096DE883F934010F08DEF06C08FE08FDEB0
:1004200096958795969587958093F3028091EE0235
:100430009091EF02A091F002B091F1028093EA0254
:100440009093EB02A093EC02B093ED028FEF05DFE7
:100450008091F60202DF8091F502FFDE8091F402C6
:10046000FCDE8091F302F9DE8091F202F6DE8EEF7F
:10047000F4CE58DECCDED8DE80910A01806F809306
:100480000A0184B1826684B98DB188618DB91092F8
:1004900080001092810080918000826080938000B3
:1004A0008091810080618093810080918000806ACA
:1004B00080938000809181008260809381001092FF
:1004C0009000109291008091900082608093900043
:1004D0008091910080618093910080919000806A6A
:1004E000809390008091910082608093910080E1E0
:1004F00097E2909387008093860090939700809373
:100500009600109289001092880010928B00109231
:100510008A00109299001092980010929B001092FD
:100520009A008091D10080688093D10031DE789468
:1005300080910B01806880930B0180910B018F7B70
:1005400080930B0180910B01806180930B0180915E
:100550000B018F7D80930B012FEF31EE84E0215052
:1005600030408040E1F700C0000067E7C62EDD2480
:10057000D3947EE7A72EB12CE2E08E2EE2E09E2EF1
:10058000F0E26F2EF2E07F2E80911602909117021A
:10059000A0911802B09119028093EE029093EF029D
:1005A000A093F002B093F1024091EA025091EB0265
:1005B0006091EC027091ED02841B950BA60BB70BBA
:1005C00084369105A105B10508F0F4DE8FE0B7DDB2
:1005D0008A3A910508F4299A8091F702813071F4E2
:1005E0009091E80289278093E8029FEF23EC39E09D
:1005F000915020403040E1F700C000008091FA02A5
:100600009601281B3109C901880F991F880F991F6E
:100610009093010280930002909399008093980038
:100620008091E802882339F180E089DD86399105DF
:1006300088F081E084DDEC0182E081DD4CE2E42E93
:10064000FF24F39400E010E08C179D0790F1C4EDB7
:10065000DEEF3BC081E073DD8C32914068F582E0D3
:100660006EDDE12CF12C0CE211E08C32914058F15E
:10067000CAE6DFEF2AC08091E902882331F1C091F8
:10068000F902D0E0CE57D109CE01880F991FC80FCB
:10069000D91F8091F8029501281B3109C9018901F0
:1006A000000F111F080F191F1092E902E12CF12C05
:1006B0000CC0CCE2D1E009C0E12CF12C0CE211E03D
:1006C000C6E9D0E002C0C0E0D0E0A701B801CE0189
:1006D000CBDD82E034DD382E292E81E030DD582E4E
:1006E000492E80E02CDD2F923F924F925F929F9394
:1006F0008F939F928F927F926F92E8D180E292E0E7
:10070000A0DD8DB79EB70A960FB6F8949EBF0FBEB8
:100710008DBF3ACF1F920F920FB60F9211248F9375
:100720009F938091D60090911F02933099F040F4EE
:10073000913061F09230B9F580931D0293E00DC0C5
:10074000953091F068F0963099F02DC080931E029C
:1007500092E003C080931C0294E090931F0223C098
:1007600080931B0295E0F9CF80931A0296E0F5CFB3
:100770008E3FB9F490911E029093FB0290911D025E
:100780009093FA0290911C029093F90290911B02AF
:100790009093F80290911A029093F70291E090934F
:1007A000E90210921F028F3F19F481E080931F022B
:1007B0009F918F910F900FBE0F901F9018955058DA
:1007C000BB27AA270ED0E5C0D6D030F0DBD020F072
:1007D00031F49F3F11F41EF4CBC00EF4E095E7FB1B
:1007E000C1C0E92FE7D080F3BA1762077307840707
:1007F000950718F071F49EF5FFC00EF4E0950B2EEE
:10080000BA2FA02D0B01B90190010C01CA01A00162
:100810001124FF27591B99F0593F50F4503E68F1BD
:100820001A16F040A22F232F342F4427585FF3CFFE
:10083000469537952795A795F0405395C9F77EF4CF
:100840001F16BA0B620B730B840BBAF09150A1F018
:10085000FF0FBB1F661F771F881FC2F70EC0BA0F9E
:10086000621F731F841F48F4879577956795B79526
:10087000F7959E3F08F0B3CF9395880F08F099271E
:10088000EE0F97958795089504D06894B111B5C07F
:10089000089598D088F09F5790F0B92F9927B751B5
:1008A000A0F0D1F0660F771F881F991F1AF0BA9534
:1008B000C9F712C0B13081F09FD0B1E008959CC05B
:1008C000672F782F8827B85F39F0B93FCCF386952A
:1008D00077956795B395D9F73EF490958095709587
:1008E00061957F4F8F4F9F4F0895E89409C097FB04
:1008F0003EF490958095709561957F4F8F4F9F4FF7
:100900009923A9F0F92F96E9BB279395F69587953A
:1009100077956795B795F111F8CFFAF4BB0F11F4FD
:1009200060FF1BC06F5F7F4F8F4F9F4F16C08823A4
:1009300011F096E911C0772321F09EE8872F762FDA
:1009400005C0662371F096E8862F70E060E02AF01B
:100950009A95660F771F881FDAF7880F9695879507
:1009600097F9089597F99F6780E870E060E008952F
:100970009FEF80EC089500240A94161617061806B7
:100980000906089500240A94121613061406050693
:100990000895092E0394000C11F4882352F0BB0F24
:1009A00040F4BF2B11F460FF04C06F5F7F4F8F4F87
:1009B0009F4F089557FD9058440F551F59F05F3FC2
:1009C00071F04795880F97FB991F61F09F3F79F071
:1009D00087950895121613061406551FF2CF4695F3
:1009E000F1DF08C0161617061806991FF1CF869575
:1009F0007105610508940895E894BB276627772759
:100A0000CB0197F908950BD0C4CFB5DF28F0BADF3A
:100A100018F0952309F0A6CFABCF1124EECFCADF93
:100A2000A0F3959FD1F3950F50E0551F629FF00101
:100A3000729FBB27F00DB11D639FAA27F00DB11D5A
:100A4000AA1F649F6627B00DA11D661F829F2227E3
:100A5000B00DA11D621F739FB00DA11D621F839F6A
:100A6000A00D611D221F749F3327A00D611D231F40
:100A7000849F600D211D822F762F6A2F11249F578E
:100A800050408AF0E1F088234AF0EE0FFF1FBB1FB1
:100A9000661F771F881F91505040A9F79E3F510550
:100AA00070F060CFAACF5F3FECF3983EDCF3869501
:100AB00077956795B795F795E7959F5FC1F7FE2BFB
:100AC000880F911D9695879597F908950F931F9319
:100AD000CF93DF93CDB7DEB72E970FB6F894DEBF76
:100AE0000FBECDBF0E891F8986E08C831A830983D0
:100AF0008FEF9FE79E838D83AE01465E5F4F688DCB
:100B0000798DCE01019610D0EF81F885E00FF11FAD
:100B100010822E960FB6F894DEBF0FBECDBFDF91C8
:100B2000CF911F910F9108952F923F924F925F9214
:100B30006F927F928F929F92AF92BF92CF92DF92ED
:100B4000EF92FF920F931F93CF93DF93CDB7DEB752
:100B50002B970FB6F894DEBF0FBECDBF6C017B01A3
:100B60008A01FC0117821682838181FFBFC1CE01F9
:100B700001963C01F6019381F70193FD859193FF66
:100B800081917F01882309F4ADC1853239F493FD49
:100B9000859193FF81917F01853221F4B60190E028
:100BA000D6D1E8CF912C212C312CFFE1F315D8F0D0
:100BB0008B3279F038F4803279F08332A1F4232D2E
:100BC00020611DC08D3261F0803369F4232D2160D6
:100BD00016C0832D8260382EE32DE4603E2E2AC09D
:100BE000F32DF8601DC037FC2DC020ED280F2A30F2
:100BF00040F08E32B9F436FC75C1232D2064322EBC
:100C000019C036FE06C08AE0989E200D1124922E4F
:100C100011C0EAE02E9E200D1124222EF32DF06249
:100C20003F2E08C08C3621F4832D8068382E02C0F8
:100C3000883641F4F70193FD859193FF81917F01FF
:100C40008111B3CF982F9F7D9554933028F40C5F7A
:100C50001F4F9FE399830DC0833631F0833771F0C6
:100C6000833509F055C020C0F801808189830E5F6B
:100C70001F4F88248394912C530112C02801F2E065
:100C80004F0E511CF801A080B18036FE03C0692DC3
:100C900070E002C06FEF7FEFC5014ED14C018201C1
:100CA000F32DFF773F2E15C0280122E0420E511C84
:100CB000F801A080B18036FE03C0692D70E002C04B
:100CC0006FEF7FEFC5012DD14C01F32DF0683F2E62
:100CD000820133FC19C0822D90E088169906A0F499
:100CE000B60180E290E033D12A94F5CFF50137FCCC
:100CF000859137FE81915F01B60190E028D12110E6
:100D00002A9421E0821A91088114910479F7E1C0B4
:100D1000843611F0893639F5F80137FE07C0608155
:100D20007181828193810C5F1F4F08C06081718146
:100D3000072E000C880B990B0E5F1F4FF32DFF76CB
:100D40003F2E97FF09C090958095709561957F4FD4
:100D50008F4F9F4FF0683F2E2AE030E0A30133D140
:100D6000882E861844C0853731F4232D2F7EB22E6D
:100D70002AE030E025C0932D997FB92E8F36C1F03F
:100D800018F4883579F0AEC0803719F0883721F033
:100D9000A9C0E92FE061BE2EB4FE0DC0FB2DF460AA
:100DA000BF2E09C034FE0AC0292F2660B22E06C00D
:100DB00028E030E005C020E130E002C020E132E070
:100DC000F801B7FE07C060817181828193810C5F59
:100DD0001F4F06C06081718180E090E00E5F1F4F61
:100DE000A301F1D0882E8618FB2DFF773F2E36FE0B
:100DF0000DC0232D2E7FA22E891458F434FE0BC073
:100E000032FC09C0832D8E7EA82E05C0B82CA32CE1
:100E100003C0B82C01C0B92CA4FE0FC0FE01E80D20
:100E2000F11D8081803321F49A2D997EA92E09C06D
:100E3000A2FE06C0B394B39404C08A2D867809F04C
:100E4000B394A3FC10C0A0FE06C0B21480F4280C1A
:100E5000922C9B180DC0B21458F4B60180E290E0B9
:100E600076D0B394F8CFB21418F42B1802C0982C93
:100E7000212CA4FE0FC0B60180E390E068D0A2FE52
:100E800016C0A1FC03C088E790E002C088E590E0AE
:100E9000B6010CC08A2D867851F0A1FE02C08BE20B
:100EA00001C080E2A7FC8DE2B60190E050D0891429
:100EB00030F4B60180E390E04AD09A94F8CF8A9457
:100EC000F301E80DF11D8081B60190E040D0811062
:100ED000F6CF222009F44ECEB60180E290E037D062
:100EE0002A94F7CFF6018681978102C08FEF9FEF9A
:100EF0002B960FB6F894DEBF0FBECDBFDF91CF911A
:100F00001F910F91FF90EF90DF90CF90BF90AF9027
:100F10009F908F907F906F905F904F903F902F9019
:100F20000895FC010590615070400110D8F780953C
:100F300090958E0F9F1F0895FC01615070400190A5
:100F40000110D8F7809590958E0F9F1F08950F93ED
:100F50001F93CF93DF93FB01238121FD03C08FEF0C
:100F60009FEF2CC022FF16C0468157812481358116
:100F70004217530744F4A081B1819D012F5F3F4F79
:100F8000318320838C93268137812F5F3F4F3783B6
:100F9000268314C08B01EC01FB010084F185E02D58
:100FA0001995892BE1F6D80116968D919C9117978A
:100FB000019617969C938E931697CE01DF91CF9151
:100FC0001F910F910895FA01AA27283051F120317D
:100FD00081F1E8946F936E7F6E5F7F4F8F4F9F4FCD
:100FE000AF4FB1E03ED0B4E03CD0670F781F891F0F
:100FF0009A1FA11D680F791F8A1F911DA11D6A0FDD
:10100000711D811D911DA11D20D009F468943F918F
:101010002AE0269F11243019305D3193DEF6CF018E
:101020000895462F4770405D4193B3E00FD0C9F754
:10103000F6CF462F4F70405D4A3318F0495D31FDC1
:101040004052419302D0A9F7EACFB4E0A695979514
:10105000879577956795BA95C9F7009761057105EA
:1010600008959B01AC010A2E069457954795379534
:101070002795BA95C9F7620F731F841F951FA01D8E
:061080000895F894FFCF73
:10108600E8032534642C202534642C202534642080
:061096007C7C200A000032
:00000001FF
