:1000000071C0000081C000007FC000007DC0000002
:100010007BC0000079C0000077C0000075C0000000
:1000200073C0000071C000006FC000006DC0000010
:100030006BC0000069C0000067C0000065C0000020
:1000400063C0000061C000005FC000005DC0000030
:100050005BC0000059C0000057C0000055C0000040
:1000600053C0000051C000004FC000004DC0000050
:100070004BC0000049C0000047C0000045C0000060
:1000800043C0000041C000003FC000003DC0000070
:100090003BC0000039C0000037C0000035C0000080
:1000A00033C0000031C000002FC000002DC0000090
:1000B0002BC0000029C0000027C0000076C000004F
:1000C00023C0000021C000001FC00000BCC1000010
:1000D0001BC0000019C0000017C0000015C00000C0
:1000E00013C0000011241FBECFEFD1E2DEBFCDBF91
:1000F00000E00CBF22E0A0E0B2E001C01D92AE30F3
:10010000B207E1F78BD0EBC17BCFEAE7F0E087E005
:10011000808380E480937C0010927B0080818068E3
:1001200080830895883048F490917B00977F909366
:100130007B0090917C00907E0DC098EF980F9830D6
:1001400060F490917B00986090937B0090917C008C
:10015000907E8770892B80937C0080917A008064E8
:1001600080937A0080917A0086FDFCCF80917800A0
:1001700090917900089510922001E1E2F1E088E089
:10018000808310922501109224018FE79EE39093C3
:10019000290180932801A3E7B0E08C9182608C93C1
:1001A000808181608083789408951F920F920FB6AA
:1001B0000F9211248F939F93AF93BF93809100026E
:1001C00090910102A0910202B09103020196A11D3B
:1001D000B11D8093000290930102A0930202B0939C
:1001E0000302BF91AF919F918F910F900FBE0F901F
:1001F0001F90189588E18093D10086E08093D2000B
:1002000087E690E09093D5008093D4000895909174
:10021000D00095FFFCCF8093D600089576DFEADF0B
:1002200080910A01806F80930A0184B1806684B94D
:1002300010928000109281008091800082608093F3
:100240008000809181008061809381008091800096
:10025000806A809380008091810082608093810019
:1002600080E197E290938700809386001092890046
:100270001092880010928B0010928A008091D10019
:1002800080688093D10077DF7894412C512C320123
:10029000C0E0D0E000E010E0F0E5EF2E809000023A
:1002A00090900102A0900202B0900302D501C40117
:1002B00084199509A609B70984369105A105B105E8
:1002C00008F44AC080E02EDF883F934040F480E08D
:1002D00029DF9695879596958795C82E02C07DEF64
:1002E000C72E81E01FDF883F934040F481E01ADF92
:1002F0009695879596958795782E02C05DEF752E19
:100300008EE010DF883F934040F48EE00BDF96953F
:10031000879596958795D82E02C03DEFD32E8FE016
:1003200001DF883F934040F48FE0FCDE969587958F
:1003300096958795F82E02C08DEFF82E8FEF67DF28
:100340008C2D65DF872D63DF8D2D61DF8F2D5FDFC6
:100350008EEF5DDF2401350180910902882361F071
:1003600000910D0210E000581109C0910A02D0E07E
:10037000C058D109109209021016110684F4809118
:100380000B01806480930B0180910B018F77809328
:100390000B01E09EB001E19E700D112416C0011505
:1003A000110589F080910B01806880930B01809189
:1003B0000B018F7B80930B0130EB3003B001319F39
:1003C000700D112402C060E070E01C161D0684F45C
:1003D00080910B01806180930B0180910B018F7DD7
:1003E00080930B01EC9EC001ED9E900D112416C070
:1003F000209791F080910B01806280930B01809196
:100400000B018F7E80930B0140EB9E014203C001E4
:10041000439F900D112402C080E090E09B01613168
:10042000774214F020E137E230938900209388006E
:10043000813127E2920714F080E197E290938B00DC
:1004400080938A002BCF1F920F920FB60F92112428
:100450008F939F938091D60090910802933091F0F2
:1004600040F4913059F0923071F58093060293E098
:100470000CC0943069F0953079F025C08093070264
:1004800092E003C08093050294E0909308021BC0A1
:100490008093040295E0F9CF8E3F99F49091070282
:1004A00090930D029091060290930C029091050298
:1004B00090930B029091040290930A0291E0909322
:1004C0000902109208028F3F19F481E0809308021C
:1004D0009F918F910F900FBE0F901F901895F894D9
:0204E000FFCF4C
:00000001FF
