:1000000071C000008EC000008CC000008AC00000DB
:1000100088C0000086C0000084C0000082C00000CC
:1000200080C000007EC000007CC000007AC00000DC
:1000300078C0000076C0000074C0000072C00000EC
:1000400070C000006EC000006CC000006AC00000FC
:1000500068C0000066C0000064C0000062C000000C
:1000600060C000005EC000005CC000005AC000001C
:1000700058C0000056C0000054C0000052C000002C
:1000800050C000004EC000004CC000004AC000003C
:1000900048C0000046C0000044C0000042C000004C
:1000A00040C000003EC000003CC000003AC000005C
:1000B00038C0000036C0000034C0000068C1000035
:1000C00030C000002EC000002CC0000061C2000043
:1000D00028C0000026C0000024C0000022C000008C
:1000E00020C0000011241FBECFEFD1E2DEBFCDBF84
:1000F00000E00CBF12E0A0E0B2E0EAE5FCE000E0C6
:100100000BBF02C007900D92A632B107D9F723E0CA
:10011000A6E2B2E001C01D92A63CB207E1F770D1A1
:100120009AC56ECFEAE7F0E087E0808380E48093B1
:100130007C0010927B0080818068808308958830E5
:1001400048F490917B00977F90937B0090917C0086
:10015000907E0DC098EF980F983060F490917B00DE
:10016000986090937B0090917C00907E8770892BA3
:1001700080937C0080917A00806480937A008091E3
:100180007A0086FDFCCF80917800909179000895E7
:10019000EBE0F1E080818B7F80830895EBE0F1E07C
:1001A0008081846080830895CF93DF93C82FD62FFA
:1001B00080910B01662311F0886001C0877F8093D6
:1001C0000B01C7FF02C0289A01C02898C6FF02C0D1
:1001D000299A01C02998C5FF02C02A9A01C02A980D
:1001E000C4FF02C02B9A01C02B9800C0D7DF82E069
:1001F0008A95F1F700C0CCDFC3FF02C0289A01C086
:100200002898C2FF02C0299A01C02998C1FF02C0E4
:100210002A9A01C02A98C0FF02C02B9A01C02B98CD
:1002200000C0BCDF92E09A95F1F700C0B1DF289AD8
:10023000299A2A9A2B9AD11108C0C43030F48FE938
:1002400099E10197F1F700C003C095ED9A95F1F798
:100250000000DF91CF91089560E0A6CF8058FCCFD9
:1002600081E0FACF82E0F8CF61E09ECFCF93DF93B9
:10027000EC018991882311F0F7DFFBCFDF91CF915B
:100280000895EAE0F1E08081846080838081886065
:100290008083209A219A229A239A7ADFEBE0F1E078
:1002A0008081877F8083289A299A2A9A2B9A8FE5C2
:1002B0009AEE0197F1F700C000002898299800C035
:1002C0006DDF92E09A95F1F700C062DF8FE090E475
:1002D0000197F1F700C0000061DF92E09A95F1F715
:1002E00000C056DF8FE891E00197F1F700C00000F1
:1002F00055DF92E09A95F1F700C04ADF85ED8A95C7
:10030000F1F700002B9800C049DF92E09A95F1F7D1
:1003100000C03EDF85ED8A95F1F700002B9800C004
:100320003DDF92E09A95F1F700C032DF82E08A95D6
:10033000F1F700C0289A00C031DF92E09A95F1F7FA
:1003400000C026DF85ED8A95F1F7000088E084DFA4
:1003500087DF86E081DF8CE07FCF10922001E1E231
:10036000F1E088E0808310922501109224018FE74C
:100370009EE39093290180932801A3E7B0E08C913C
:1003800082608C93808181608083789408951F922D
:100390000F920FB60F9211248F939F93AF93BF9339
:1003A0008091260290912702A0912802B091290203
:1003B0000196A11DB11D8093260290932702A09360
:1003C0002802B0932902BF91AF919F918F910F9016
:1003D0000FBE0F901F90189588E18093D10086E0A2
:1003E0008093D20087E690E09093D5008093D4006C
:1003F00008959091D00095FFFCCF8093D60008958A
:100400008FEF8AB952981BB85A9AE6DF3ADF8ADE34
:100410008091D10080688093D1009FDF7894412C37
:10042000512C3201CCEBD2E0F0E0EF2EF2E0FF2EC7
:100430000EEF12E0A9E12A2EB3E1CB2EB2E0DB2EC3
:100440008090260290902702A0902802B090290266
:10045000D501C40184199509A609B7098436910507
:10046000A105B10508F451C080E069DE883F9340E2
:1004700040F480E064DE9695879596958795482EA2
:1004800002C07DEF472E81E05ADE883F934040F462
:1004900081E055DE9695879596958795582E02C0F2
:1004A0005DEF552E8EE04BDE883F934040F48EE0AA
:1004B00046DE9695879596958795682E02C03DEF06
:1004C000632E8FE03CDE883F934040F48FE037DEC0
:1004D0009695879596958795782E02C08DEF782E04
:1004E00039B08FEF86DF842D84DF852D82DF862D66
:1004F00080DF872D7EDF32FA332430F881E08325D8
:1005000078DF8EEF76DF2401350180913002882379
:1005100009F496CFA5DEA6DE609133022091340265
:1005200070E0CE0196D07F936F93622F70E0CE0182
:1005300090D07F936F93FF92EF921F930F93B0D061
:100540008091320220913502622D77D01F928F93D5
:10055000622F70E0CE017DD07F936F93DF92CF92B8
:1005600086E392E09F938F939BD08EEF92E07EDEA6
:1005700080E474DE86E392E079DE109230028DB77B
:100580009EB740960FB6F8949EBF0FBE8DBF58CF52
:100590001F920F920FB60F9211248F939F93809109
:1005A000D60090912F02933099F040F4913061F091
:1005B0009230B9F580932D0293E00DC0953091F003
:1005C00068F0963099F02DC080932E0292E003C01F
:1005D00080932C0294E090932F0223C080932B02EF
:1005E00095E0F9CF80932A0296E0F5CF8E3FB9F4DB
:1005F00090912E029093350290912D0290933402A7
:1006000090912C029093330290912B02909332029E
:1006100090912A029093310291E0909330021092CF
:100620002F028F3F19F481E080932F029F918F91C9
:100630000F900FBE0F901F901895991B79E004C082
:10064000991F961708F0961B881F7A95C9F7809511
:10065000089597FB072E16F4009406D077FD08D076
:100660000BD007FC05D03EF4909581959F4F0895DF
:10067000709561957F4F0895AA1BBB1B51E107C080
:10068000AA1FBB1FA617B70710F0A61BB70B881F22
:10069000991F5A95A9F780959095BC01CD010895B1
:1006A0000F931F93CF93DF93CDB7DEB72E970FB67F
:1006B000F894DEBF0FBECDBF0E891F8986E08C8304
:1006C0001A8309838FEF9FE79E838D83AE01465E79
:1006D0005F4F688D798DCE01019610D0EF81F8853E
:1006E000E00FF11F10822E960FB6F894DEBF0FBEFA
:1006F000CDBFDF91CF911F910F9108952F923F921F
:100700004F925F926F927F928F929F92AF92BF9221
:10071000CF92DF92EF92FF920F931F93CF93DF93CD
:10072000CDB7DEB72B970FB6F894DEBF0FBECDBFA7
:100730006C017B018A01FC0117821682838181FF93
:10074000BFC1CE0101963C01F6019381F70193FDF3
:10075000859193FF81917F01882309F4ADC1853292
:1007600039F493FD859193FF81917F01853221F4C6
:10077000B60190E0D6D1E8CF912C212C312CFFE1AD
:10078000F315D8F08B3279F038F4803279F0833277
:10079000A1F4232D20611DC08D3261F0803369F4F6
:1007A000232D216016C0832D8260382EE32DE46056
:1007B0003E2E2AC0F32DF8601DC037FC2DC020ED61
:1007C000280F2A3040F08E32B9F436FC75C1232D43
:1007D0002064322E19C036FE06C08AE0989E200D95
:1007E0001124922E11C0EAE02E9E200D1124222EFB
:1007F000F32DF0623F2E08C08C3621F4832D8068E3
:10080000382E02C0883641F4F70193FD859193FF9D
:1008100081917F018111B3CF982F9F7D95549330A3
:1008200028F40C5F1F4F9FE399830DC0833631F08E
:10083000833771F0833509F055C020C0F8018081FD
:1008400089830E5F1F4F88248394912C530112C01B
:100850002801F2E04F0E511CF801A080B18036FE55
:1008600003C0692D70E002C06FEF7FEFC5014ED16C
:100870004C018201F32DFF773F2E15C0280122E0A5
:10088000420E511CF801A080B18036FE03C0692DD4
:1008900070E002C06FEF7FEFC5012DD14C01F32D49
:1008A000F0683F2E820133FC19C0822D90E088163B
:1008B0009906A0F4B60180E290E033D12A94F5CFF6
:1008C000F50137FC859137FE81915F01B60190E01B
:1008D00028D121102A9421E0821A910881149104D0
:1008E00079F7E1C0843611F0893639F5F80137FE21
:1008F00007C060817181828193810C5F1F4F08C0A6
:1009000060817181072E000C880B990B0E5F1F4FC1
:10091000F32DFF763F2E97FF09C090958095709537
:1009200061957F4F8F4F9F4FF0683F2E2AE030E058
:10093000A30133D1882E861844C0853731F4232D86
:100940002F7EB22E2AE030E025C0932D997FB92E5C
:100950008F36C1F018F4883579F0AEC0803719F0C1
:10096000883721F0A9C0E92FE061BE2EB4FE0DC08A
:10097000FB2DF460BF2E09C034FE0AC0292F26606B
:10098000B22E06C028E030E005C020E130E002C011
:1009900020E132E0F801B7FE07C0608171818281F9
:1009A00093810C5F1F4F06C06081718180E090E0F1
:1009B0000E5F1F4FA301F1D0882E8618FB2DFF7705
:1009C0003F2E36FE0DC0232D2E7FA22E891458F403
:1009D00034FE0BC032FC09C0832D8E7EA82E05C0CC
:1009E000B82CA32C03C0B82C01C0B92CA4FE0FC096
:1009F000FE01E80DF11D8081803321F49A2D997E4E
:100A0000A92E09C0A2FE06C0B394B39404C08A2DD7
:100A1000867809F0B394A3FC10C0A0FE06C0B214FF
:100A200080F4280C922C9B180DC0B21458F4B60117
:100A300080E290E076D0B394F8CFB21418F42B187B
:100A400002C0982C212CA4FE0FC0B60180E390E0D8
:100A500068D0A2FE16C0A1FC03C088E790E002C0E7
:100A600088E590E0B6010CC08A2D867851F0A1FE91
:100A700002C08BE201C080E2A7FC8DE2B60190E0EB
:100A800050D0891430F4B60180E390E04AD09A94B3
:100A9000F8CF8A94F301E80DF11D8081B60190E052
:100AA00040D08110F6CF222009F44ECEB60180E26C
:100AB00090E037D02A94F7CFF6018681978102C063
:100AC0008FEF9FEF2B960FB6F894DEBF0FBECDBF12
:100AD000DF91CF911F910F91FF90EF90DF90CF901A
:100AE000BF90AF909F908F907F906F905F904F904E
:100AF0003F902F900895FC010590615070400110C7
:100B0000D8F7809590958E0F9F1F0895FC01615036
:100B1000704001900110D8F7809590958E0F9F1F1F
:100B200008950F931F93CF93DF93FB01238121FD42
:100B300003C08FEF9FEF2CC022FF16C04681578164
:100B4000248135814217530744F4A081B1819D016E
:100B50002F5F3F4F318320838C93268137812F5F16
:100B60003F4F3783268314C08B01EC01FB010084C7
:100B7000F185E02D1995892BE1F6D80116968D9116
:100B80009C911797019617969C938E931697CE017A
:100B9000DF91CF911F910F910895FA01AA27283074
:100BA00051F1203181F1E8946F936E7F6E5F7F4F3A
:100BB0008F4F9F4FAF4FB1E03ED0B4E03CD0670FB6
:100BC000781F891F9A1FA11D680F791F8A1F911D09
:100BD000A11D6A0F711D811D911DA11D20D009F459
:100BE00068943F912AE0269F11243019305D31939B
:100BF000DEF6CF010895462F4770405D4193B3E084
:100C00000FD0C9F7F6CF462F4F70405D4A3318F02A
:100C1000495D31FD4052419302D0A9F7EACFB4E0DB
:100C2000A6959795879577956795BA95C9F7009793
:100C30006105710508959B01AC010A2E0694579534
:100C4000479537952795BA95C9F7620F731F841F8B
:0A0C5000951FA01D0895F894FFCF32
:100C5A004C3A25326420636D2C20523A25326420A6
:100C6A00636D00463A25326420636D2C20423A2592
:060C7A0032642076000048
:00000001FF
