:1000000071C000008EC000008CC000008AC00000DB
:1000100088C0000086C0000084C0000082C00000CC
:1000200080C000007EC000007CC000007AC00000DC
:1000300078C0000076C0000074C0000072C00000EC
:1000400070C000006EC000006CC000006AC00000FC
:1000500068C0000066C0000064C0000062C000000C
:1000600060C000005EC000005CC000005AC000001C
:1000700058C0000056C0000054C0000052C000002C
:1000800050C000004EC000004CC000004AC000003C
:1000900048C0000046C0000044C0000042C000004C
:1000A00040C000003EC000003CC000003AC000005C
:1000B00038C0000036C0000034C0000083C000001B
:1000C00030C000002EC000002CC0000030C2000074
:1000D00028C0000026C0000024C0000022C000008C
:1000E00020C0000011241FBECFEFD1E2DEBFCDBF84
:1000F00000E00CBF12E0A0E0B2E0EAECF5E000E0C6
:100100000BBF02C007900D92A230B107D9F722E0D1
:10011000A2E0B2E001C01D92A031B207E1F78BD09E
:1001200052C26ECFEAE7F0E087E0808380E48093FC
:100130007C0010927B0080818068808308958830E5
:1001400048F490917B00977F90937B0090917C0086
:10015000907E0DC098EF980F983060F490917B00DE
:10016000986090937B0090917C00907E8770892BA3
:1001700080937C0080917A00806480937A008091E3
:100180007A0086FDFCCF80917800909179000895E7
:1001900010922001E1E2F1E088E0808310922501D5
:1001A000109224018FE79EE3909329018093280108
:1001B000A3E7B0E08C9182608C9380818160808322
:1001C000789408951F920F920FB60F9211248F9377
:1001D0009F93AF93BF938091020290910302A091ED
:1001E0000402B09105020196A11DB11D8093020287
:1001F00090930302A0930402B0930502BF91AF91C4
:100200009F918F910F900FBE0F901F90189588E1CE
:100210008093D10086E08093D20087E690E09093AF
:10022000D5008093D40008959091D00095FFFCCF25
:100230008093D600089576DFEADF80910A01806F0F
:1002400080930A0184B1806684B910928000109274
:100250008100809180008260809380008091810085
:1002600080618093810080918000806A809380000B
:100270008091810082608093810080E197E2909379
:100280008700809386001092890010928800109257
:100290008B0010928A008091D10080688093D100F9
:1002A00077DF789480910B01806880930B018091B7
:1002B0000B018F7B80930B0180910B0180618093F8
:1002C0000B0180910B018F7D80930B01812C912C70
:1002D0005401C12CD12CE12CF12CA0E53A2E8AE05E
:1002E0002EDF8C3B924020F480910B01816003C093
:1002F00080910B018E7F80930B0140900202509001
:1003000003026090040270900502D301C2018819B3
:100310009909AA09BB094497A105B10508F446C08B
:1003200080E00DDF883F934040F480E008DF969541
:10033000879596958795182F01C01DEF81E0FFDE08
:10034000883F934040F481E0FADE96958795969534
:100350008795082F01C00DEF8EE0F1DE883F9340B6
:1003600040F48EE0ECDE9695879596958795D82F8C
:1003700001C0DDEF8FE0E3DE883F934040F48FE083
:10038000DEDE9695879596958795C82F01C0CDEFAF
:100390008FEF4ADF812F48DF802F46DF8D2F44DF2C
:1003A0008C2F42DF8EEF40DF53014201809100022B
:1003B000882309F441C080E0C2DE833C914050F0C4
:1003C00082E0BDDE2AE0AC01249FC001259F900D94
:1003D000112410C081E0B3DE8C0182E0B0DE0C534A
:1003E000164F880F991F081B190BC801880F991FFA
:1003F000880F991F8C0180E0A2DE833C914050F071
:1004000081E09DDE2AE0AC01249FC001259F900D74
:10041000112484C082E093DEEC0181E090DECC53B5
:10042000D64F880F991F9E01281B390BC901880FD1
:10043000991F880F991F72C080910B02882371F059
:10044000E0900F02F12C30E8E31AF108C0900C02A2
:10045000D12C40E8C41AD10810920B021E141F04BC
:1004600084F480910B01806480930B0180910B01D7
:100470008F7780930B013E9C80013F9C100D1124CF
:1004800017C0E114F10491F080910B018068809312
:100490000B0180910B018F7B80930B0140EB970147
:1004A00042038001439F100D112402C000E010E0C0
:1004B0001C141D0484F480910B01806180930B0156
:1004C00080910B018F7D80930B013C9CC0013D9C72
:1004D000900D112417C0C114D10491F080910B012B
:1004E000806280930B0180910B018F7E80930B01C2
:1004F00040EB96014203C001439F900D112402C0BE
:1005000080E090E0013157E2150714F000E117E2B6
:10051000813127E2920714F080E197E2109389007D
:100520000093880090938B0080938A00D8CE1F920E
:100530000F920FB60F9211248F939F938091D60044
:1005400090910A02933091F040F4913059F092303A
:1005500071F58093080293E00CC0943069F09530F7
:1005600079F025C08093090292E003C080930702CE
:1005700094E090930A021BC08093060295E0F9CFA5
:100580008E3F99F49091090290930F029091080286
:1005900090930E029091070290930D0290910602A3
:1005A00090930C0291E090930B0210920A028F3FFD
:1005B00019F481E080930A029F918F910F900FBEF2
:0A05C0000F901F901895F894FFCFDC
:0205CA0001002E
:00000001FF
